:020000040000FA
:0600000070EF37F0120062
:06000800FDEF34F01200D0
:0600180087EF35F0120035
:06002A000200166F000049
:10003000800000000C0000000C6F0000A000000019
:040040000A000000B2
:0C004400008000400000000000000000F0
:1000500000000000000000000000000000000000A0
:100060000000000000000000000000000000000090
:100070000000000000000000000000000000000080
:10008000000000000000000000000006000000006A
:100090000000000FF00000000000000FF000000062
:1000A0000000001FF80000000000001F800000009A
:1000B0000000001F800000000000003F2000000042
:1000C0000000003F7F0000000000003F7F80000034
:1000D0000000001E7FC00000000000CEFC000000F9
:1000E000000000C6FE000000000000E5FC0000006B
:1000F000000001F1FD800000000001F9F9FC0000A2
:10010000000003F8FBFE0000000003FCF3FF00000A
:10011000000003FE73F00000000007FE37F000004F
:10012000000007FF27F0000000000FFF8FE4000031
:1001300000000FFFCFE7F00000000FFFC7CFF00077
:1001400000001FFFE3CFF80000001FFFF3DFFC00FB
:1001500000003FFFF99FC00000003FFFF8BFC00054
:1001600000003FFFFC3F900000007FFFFE7F9800F3
:1001700000007FFFFE3F3FC00000FFFFFF1F3FE08A
:100180000000FFFFFF9E7FF00000FFFFFFCEFF009B
:100190000001FFFFFFC4FF800001FFFFFFE1FF0040
:1001A0000003FFFFFFF1FE400003FEFFFFF1FEE052
:1001B0000003FEFFFFF8FCFF0007FC7FFFFC79FF58
:1001C0008007FC7FFFFE79FFC00FF83FFFFE33FC86
:1001D000000FF81FFFFF13FE000FF81FFFFF87FC43
:1001E000001FF00FFFFFCFF9001FF00FFFFFC7F355
:1001F000FC3FE007FFFFE3F3FE3FE003FFFFF1E713
:10020000FF3FC003FFFFF1C7FF7FC041FFFFF8CFF3
:10021000F07FC0E1FFFFFC9FF8FF80E0FFFFFE1FC3
:10022000F0FF81F0FFFFFE3FE0FF01F07FFFFF1FC7
:10023000C0FF01F83FFFFF8FC0FE03FC3FFFFF87B9
:10024000807E03FC1FFFFFC7007C07FE0FFFFFE35C
:10025000003C07FF0FFFFFF0003C0FFF07FFFFF020
:1002600000180FFE07FFFFF800181FFC03FFFFF840
:1002700000101FFC01FFFFF000003FF801FFFFF23C
:1002800000003FF800FFFFE200007FF000FFFFC723
:1002900000007FF000FFFFCF8000FFE001FFFF8F35
:1002A000C000FFE001FFFF1FC001FFC003FFFE1FF2
:1002B000E001FFC003FFFE4FE001FF8007FFFC6F7E
:1002C000FF00FF800FFFF8F7FE00FF000FFFF9F3BC
:1002D000FC007F001FFFF1FB80007E001FFFE3FD9D
:1002E00000003E003FFFE1FC00003C007FFFCDFF2F
:1002F000C0001C007FFF8CFFC0001800FFFF9EFFA6
:1003000080000800FFFF3F7F80000001FFFE7F208C
:1003100000000001FFFE3F8000000003FFFCBF80E3
:1003200000000007FFF99FF800000007FFF1DFF071
:100330000000000FFFF3CFF00000000FFFE7EF0019
:100340000000001FFFC7F6000000003FFFC7F000DD
:100350000000003FFF9BF0000000007FFF3BFF001C
:100360000000007FFF3DFE000000003FFE7DFC001E
:100370000000003FFCFE80000000001FFC7E00002B
:100380000000001FF97F00000000000FF3BFE00035
:100390000000000FE3BFC00000000007E7DFC0005F
:1003A00000000007CFD800000000000787C0000051
:1003B0000000000397E000000000000337FC00008D
:1003C000000000017BFC0000000000007BF8000042
:1003D00000000000FD00000000000000FD00000023
:1003E00000000000FC000000000000007FC00000D2
:1003F000000000007F800000000000003F000000BF
:1004000000000000300000000000000000000000BC
:1004100000000000000000000000000000000000DC
:1004200000000000000000000000000000000000CC
:1004300000000000000000000000000000000000BC
:100440000000000000000000000040002500000047
:10045000000000000E000000001F000000001C0053
:1004600000000038000000003BC00000001B00003E
:10047000000043800000006700000000F37C0000E3
:1004800000F370000001F870000001FCF0000001B2
:10049000FEE7800003FE6FC00003FF0F000007FFB0
:1004A0009E000007FF9E800007FFCCF8000FFFE1D1
:1004B000E0000FFFF3E0001F7FF3C8001F7FF9DFAC
:1004C000001E3FFC9C003E1FFE3E003C1FFE3D0008
:1004D0007C0FFF39F0780FFF9BF0F807FFC3C0F8DF
:1004E00043FFC7C0F063FFE780F0F1FFF300E0F0E7
:1004F000FFF80061F8FFF80041F87FFC0003F07F8F
:10050000FC0003E03FF80007E01FF30007C03FE3F3
:10051000000FC07FE7800F807FCB800780FF99E0CE
:100520000700FF9D000701FF1E000203FE5F80021F
:1005300003FECF000007FCE8000007F8F000000F02
:10054000FA7C00001FF37800001FE78000003FCB1B
:100550008000003FCBC000003F980000001F1C003F
:1005600000001F5C0000000E6E0000000CE00000A8
:10057000000560000000017800000003400000005A
:10058000038000000003E000000001C0000000053F
:100590000005000000F8000040202020100088D84E
:1005A00020000000F800000020D8880000485868AB
:1005B0004800C82828F000483030487008300870DB
:1005C000601008106000700808700040F8480000D3
:1005D00048A8900000782040400040A0A0F800F813
:1005E000A0A0400030484830003840403838403003
:1005F00040380000F8000000F8304800001008F013
:10060000000000B8000000F82040380048A8A8F01A
:10061000002078A0000070A8A86800102828F80022
:100620003048480000F82828100010A8A8780000DA
:10063000C00000080808080800408040000088F852
:10064000000080402010080000F888000098A8C82A
:1006500088804038408000D82020D8F8102010F83A
:10066000E0100810E000F00808F08080F8808000BA
:1006700048A8A89000F8A0B0487088A8700800F8B2
:10068000A0A040007088887000F84020F8F8402052
:1006900040F800F808080800F82050880010080802
:1006A000F00088F8880000F82020F8007088A8B0D2
:1006B00000F8A0A08000F8A8A88800F8888870003A
:1006C0007088885000F8A8A8500078A0A078007022
:1006D00088E8E8004080A840008850200050505032
:1006E00050500020508800000058000000005000CA
:1006F000000048A8A8700050A8A850008098A0C08A
:100700000070A8A81000E8A8A89000E020F8200039
:100710005088A850004898A8480048F80800007081
:10072000A8C8700810204080000008000020202089
:10073000202000001800002020F8202000A8707061
:10074000A8008870000000007088000000C0000051
:100750000050A85008C8D020589848A8F8A8905031
:10076000F850F85000C000C0000000E80000000091
:100770000000000000000000000000000000000079
:100780000000000000000000000000000000000069
:100790000000000000000000000000000000000059
:1007A0000000000000000000000000000000000049
:1007B0000000000000000000000000000000000039
:1007C0000000000000000000000000000000000029
:1007D0000000000000000000000000000000000019
:1007E0000000000000000000000000000000000009
:1007F000000000000000000000002010F810202081
:1008000040F840202020A870202070A8202000055B
:100810000007000000FE000040202020100082EEB3
:1008200010000000FE00000010EE820022262A3296
:100830002200320A0A3C22140814223C020C023C18
:10084000300C020C30003C02023C0020FE22001260
:100850002A2A2A24003E102020001028283E003E8C
:100860002828101C2222221C3E1020201E1E201888
:10087000201E0000FE000000FE081422000402BC3E
:10088000000000BE0000FE1020201E122A2A2A3C72
:1008900000207EA0801C2A2A2A1A1C222222FE1C4A
:1008A00022222222FE2222221C042A2A2A1E0000A0
:1008B000C00000020202020200408040000082FEEE
:1008C000000000C0701C060000FE8200868A92A212
:1008D000C2E0100E10E0C6281028C6FC021C02FC64
:1008E000F8040204F8FC020202FC8080FE808064AE
:1008F0009292924CFE909894627C828A847AFE90C6
:100900009090607C8282827CFE402010FEFE40300F
:1009100040FEFE02020202FE10284482000402028F
:10092000FC0082FE8200FE101010FE7C8292925C1F
:10093000FE90909080FE92929282FE8282827C7CD7
:1009400082828244FE9292926C3E4888483E7C822B
:10095000BAAA7A60808A906000C66C38102828286D
:1009600028280010386CC600002C00000000280069
:1009700000609292927C6C9292926C808E90A0C059
:100980003C5292920CE4A2A2A29C182848FE084471
:100990008292926C42868A92620042FE02007C8AB7
:1009A00092A27C00061C70C0000002000010101013
:1009B0001010000006000010107C10105438FE3893
:1009C00054008244380000384482000000C0000017
:1009D0006C926A040AC4C81026462454FE5448285F
:1009E0007C287C2800C000C0000000FA0000000045
:1009F00000000000000000000000000000000000F7
:100A000000000000000000000000000000000000E6
:100A100000000000000000000000000000000000D6
:100A200000000000000000000000000000000000C6
:100A300000000000000000000000000000000000B6
:100A400000000000000000000000000000000000A6
:100A50000000000000000000000000000000000096
:100A60000000000000000000000000000000000086
:100A70000000000000000000000008047E040820C0
:100A800040FC40201010543810103854101000064C
:100A9000000A0000000000FFC0FFC000000000408E
:100AA00000700030003000380008000000C0C07F37
:100AB000800C000000000000000000FFC0FFC0002C
:100AC000000000000000000C007F80C0C00000306B
:100AD000C031C033C036C03CC038C03CC03EC00688
:100AE000C006C03FC03F8039C03FC0060006003F7F
:100AF000C039C03FC03F80030003003F803FC03F7C
:100B0000003F8001C001C03F803F003F803FC000E8
:100B1000C000C03FC03F803000FF80FFC030C00039
:100B2000C000001CC03EC036C036C037C033803F56
:100B3000C03FC018003000300030001C003E0036BE
:100B40000036003FC03FC03FC03FC0360036003EC9
:100B5000001C001F803FC030C030C03FC01F801F3E
:100B6000C03FC0300030003FC01FC03FC01FC00C9E
:100B7000000C001FC03FC000000000FFC0FFC0000D
:100B8000000000FFC0FFC00F00198030C0204000EF
:100B900000018001C000C0DFC0DF8000000000DF76
:100BA000C0DFC000000000FFC0FFC0180018001F19
:100BB000C00FC01CC03EC036C036C03FC03F800022
:100BC0000018007FC0FFC0D800C0001F803FC036A3
:100BD000C036C03EC01EC01F803FC030C030C0FF06
:100BE000C0FFC01F803FC030C030C039C01980FF77
:100BF000C0FFC030C030C03FC01F80038037C03648
:100C0000C036C03FC01FC000000000E000E0000090
:100C100000000000C000C000C000C000C000C00054
:100C20000020006000C000600020000000C0C0C0C4
:100C3000C0FFC0FFC000000000600038000E0003CD
:100C40008000C00000FFC0FFC0C0C0C0C00000C125
:100C5000C0C3C0CEC0DCC0F0C0E0C0F800FC000FD4
:100C6000C00FC0FC00F800E1C0F3C01E001E00F37E
:100C7000C0E1C0FFC0FF8003000300FF80FFC0FC95
:100C800000FF0003C003C0FF00FC00FF80FFC000A6
:100C9000C000C0FFC0FF80C000C000FFC0FFC0C0D8
:100CA00000C0007980FDC0CCC0CCC0EFC06780FF21
:100CB000C0FFC0CC00CF00FFC078C07F80FFC0C0A5
:100CC000C0C1C0FF807F40FFC0FFC0CC00CC00FC93
:100CD0000078007F80FFC0C0C0C0C0FFC07F80FF21
:100CE000C0FFC018000600FFC0FFC0FFC07FC030BB
:100CF0000030007FC0FFC0FFC0FFC000C000C000C8
:100D0000C000C0FFC0FFC01E003300E1C0C0C00073
:100D100000038003C000C0FFC0FF800000C0C0FF10
:100D2000C0FFC0C0C00000FFC0FFC00C000C00FF2F
:100D3000C0FFC07F80FFC0C0C0CCC0EFC06F80FFCD
:100D4000C0FFC0CC00CC00CC00C000FFC0FFC0CCB6
:100D5000C0CCC0CCC0C0C0FFC0FFC0C0C0E1C07F1D
:100D6000803F007F80FFC0C0C0C0C0F3C07380FF61
:100D7000C0FFC0CCC0CCC0FFC073807FC0FFC0CC60
:100D800000CC00FFC07FC07F808040BC40BE40825E
:100D9000407C007000F000C6C0CEC0FC00780000AF
:100DA00000C0C0618033001E000C003300330033EC
:100DB000003300330033000C001E0033006180C09C
:100DC000C00000000000001B801B8000000000002D
:100DD0000000001B001B00000000007980FDC0CC5B
:100DE000C0CCC0FFC07F807780FFC0CCC0CCC0FF2C
:100DF000C07780C000C000CFC0DFC0F000E0007F3F
:100E000080FFC0CCC0CCC0EFC06780FD80FDC0CCEF
:100E1000C0CCC0CFC0C7800E001E0036006600FFE9
:100E2000C0FFC06180E1C0CCC0CCC0FFC077806192
:100E3000C0E3C0C6C0CCC0F8C070C0000060C0FF36
:100E4000C0FFC000C000007F80FFC0CCC0D8C0FF82
:100E5000C07F80000000C003800E003800600000EA
:100E600000000000C000C0000000000C000C000CDE
:100E7000000C000C000C000000000001C001C000CC
:100E80000000000C000C003F003F000C000C0000B4
:100E90000015000E003F800E00150000008040E1AC
:100EA000C07F801E00000000001E007F80E1C08027
:100EB00040000000000000E000E0000000000073BF
:100EC00080FFC0CCC0FFC0738006C02180530026C5
:100ED000000C80194030C039807D80EDC0EDC06FBE
:100EE00080670012007F80120012007F80120000D5
:100EF00000E000E0000000E000E00000000000FE74
:100F0000C0FEC00000000000000000000000000063
:100F100000000000000000000000000000000000D1
:100F200000000000000000000000000000000000C1
:100F300000000000000000000000000000000000B1
:100F400000000000000000000000000000000000A1
:100F50000000000000000000000000000000000091
:100F60000000000000000000000000000000000081
:100F70000000000000000000000000000000000071
:100F80000000000000000000000000000000000061
:100F90000000000000000000000000000000000051
:100FA0000000000000000000000000000000000041
:100FB0000000000000000000000000000000000031
:100FC0000000000000000000000000000000000021
:100FD0000000000000000000000000000000000011
:100FE0000000000000000000000000000000000001
:100FF00000000000000000000000000000000000F1
:1010000000000000000000000000000000000000E0
:1010100000000000000000000000000000000000D0
:1010200000000000000000000000000000000000C0
:1010300000000000000000000000000000000000B0
:1010400000000000000000000000000000000000A0
:1010500000000000000000010001801FC01FC0014F
:1010600080010020006000FE00FE00600020000CF7
:10107000000C000C006D803F001E001E003F006D44
:10108000800C000C000C000007000D0000000000A8
:10109000FFF8FFF800000000000018001E00060026
:1010A0000600060007800180C030C030F0F07FE00D
:1010B0000F0006000000000000000000FFF8FFF82D
:1010C00000000000000006000F007FE0F0F0C030DC
:1010D000C0301838187818D819981B181E181C1802
:1010E0001F181F980198019801981FF81FF01C38CD
:1010F0001E7803C0018003C01E781C381FF01FF843
:10110000001803F000181FF81FF01E001FC001F8A0
:10111000003801F81FC01E001FF01FF8001800184B
:1011200000181FF81FF0000018001800FFF0FFF86B
:101130001818181800000F181F981998199819985E
:1011400019F800001FF81FF80C001800180018000C
:101150000F001F801980198019801FF81FF81FF8D1
:101160001FF81980198019801F800F000FF01FF8D9
:101170001818181818181FF80FF01FF81FF80C008F
:10118000180018001FF80FF80FF81FF818000FC00C
:1011900018001FF80FF8000000000000FFF8FFF82B
:1011A00000000000FFF8FFF801C003E007700E38F0
:1011B0000C180000007000780018DFF8DFF0000065
:1011C000000000000000DFF8DFF800000000FFF87A
:1011D000FFF81800180018001FF80FF80F181F98D4
:1011E0001998199819981FF81FF000001800180096
:1011F0007FF8FFF8D800D80000000FF01FF819980A
:10120000199819980F980FF01FF81818181818182F
:10121000FFF8FFF80FF01FF81818181818181E78A4
:101220000E70FFF8FFF81818181818181FF80FF0AC
:1012300000F019F81998199819981FF80FF800007C
:1012400000000000F000F00000000000001800188E
:101250000018001800180018001800002000600096
:10126000C0006000200000000000C018C018FFF897
:10127000FFF8000000000000E00038000E000380CE
:1012800000E0003800000000FFF8FFF8C018C018A8
:101290000000C078C1F8C3F8CF98FE18FC18F01809
:1012A0000000F800FC000FF80FF8FC00F800F078E0
:1012B000F8F80F8007000F80F8F8F078FFF8FFF8D3
:1012C00000E0070000E0FFF8FFF8F800FF8007F8F3
:1012D000007807F8FF80F800FFF0FFF8001800180A
:1012E0000018FFF8FFF00000C000C000FFF8FFF892
:1012F000C000C0007C30FE38C618C618C618E7F813
:1013000063F0FFF8FFF8C700C780C7C0FEF87C781D
:101310007FF0FFF8C018C0D8C078FFF07FD8FFF882
:10132000FFF8C600C600C600FE007C007FF0FFF894
:10133000C018C018C018FFF87FF0FFF8FFF8380099
:10134000070000E0FFF8FFF8FFF8FFF8380007009B
:101350003800FFF8FFF8FFF8FFF800180018001831
:1013600000180018FFF8FFF80F801DC038E0F07873
:10137000E03800000070007800180018FFF8FFF057
:1013800000000000C018FFF8FFF8C0180000FFF8C8
:10139000FFF8060006000600FFF8FFF87FF0FFF8F0
:1013A000C018C618C618E7F867F0FFF8FFF8C600BF
:1013B000C600C600C600C000FFF8FFF8C618C61871
:1013C000C618C618C018FFF8FFF8C018C018E038D3
:1013D0007FF03FE07FF0FFF8C018C018C018E03879
:1013E0006030FFF8FFF8C618C618C618FFF879F085
:1013F0007FF8FFF8C600C600C600FFF87FF87FF050
:10140000FFF8C018DF18DF98C1987F183000780007
:10141000C1D8C3D8C6007C0038000000C0186030B6
:10142000306018C00D80070019801980198019805C
:10143000198019801980000007000D8018C03060E5
:101440006030C0180000000000000DC00D800000DA
:1014500000000000000000000D800D800000000072
:101460007C30FE38C618C618C618FFF87FF07DF02D
:10147000FFF8C618C618C618FFF87DF0C000C000F7
:10148000C7F8CFF8DC00F800F0007FF0FFF8C618CE
:10149000C618C618E7F863F0FE30FE38C618C6183E
:1014A000C618C7F8C3F00F001F003B007300E3002D
:1014B000FFF8FFF86030E038C018C618C618FFF80B
:1014C00079F07078F0F8C1D8C398C718FE187C1866
:1014D000000030187018FFF8FFF8001800187FF0AF
:1014E000FFF8C318C618CC18FFF87FF000000038CA
:1014F00000E003800E003800E00000000000000063
:101500000018001800000000000006000600060099
:1015100006000600060000000000000000780078C9
:10152000000000000000060006001F801F8006006B
:1015300006000000088007001FC0070008800000A8
:1015400000008008C01870703FE00F8000000000AD
:101550000F803FE07070C01880080000000000009D
:101560000000F000F000000000007DF0FFF8C71858
:10157000CF98FDF879F0033870C0D980DB00767021
:101580000CD818D830701C603E603660F778F3785D
:1015900033E031C018C07FF07FF018C07FF07FF0DB
:1015A00018C00000F000F0000000F000F0000000A3
:1015B000000000000000FFD8FFD80000000000007D
:1015C000000000000000000000000000000000001B
:1015D000000000000000000000000000000000000B
:1015E00000000000000000000000000000000000FB
:1015F00000000000000000000000000000000000EB
:1016000000000000000000000000000000000000DA
:1016100000000000000000000000000000000000CA
:1016200000000000000000000000000000000000BA
:1016300000000000000000000000000000000000AA
:10164000000000000000000000000000000000009A
:10165000000000000000000000000000000000008A
:10166000000000000000000000000000000000007A
:10167000000000000000000000000000000000006A
:10168000000000000000000000000000000000005A
:10169000000000000000000000000000000000004A
:1016A000000000000000000000000000000000003A
:1016B000000000000000000000000000000000002A
:1016C000000000000000000000000000000000001A
:1016D000000000000000000000000000000000000A
:1016E00000000000000000000000000000000000FA
:1016F00000000000000000000000000000000000EA
:1017000000000000000000000000000000000000D9
:1017100000000000000000000000000000000000C9
:1017200000000000000000000000000000000000B9
:1017300000000000000000000000000000000000A9
:1017400000000000000000000020003007F807F84B
:1017500000300020000020006000FF00FF0060005B
:10176000200006000600060036C01F800F0006009D
:1017700006000F001F8036C0060006000600001796
:10178000001A00000000000000000000000000003F
:101790000000000000000000000000000000000049
:1017A0000000000000000000000000FFFFFFC0FF7D
:1017B000FFFFC0FFFFFFC0FFFFFFC00000000000F1
:1017C0000000000000000000000000000000000019
:1017D0000000000000000000000000000000000009
:1017E00000000000000000000000000000000000F9
:1017F000F0000000F0000001E0000001E000000146
:10180000E0000001E0000000F0000000F000000037
:10181000F800000078000000780000007800000068
:10182000F0000000F00000000000000000000000D8
:1018300000000000000000000000000000000000A8
:101840000000000000000000000000000000000098
:1018500000000000000000F00003C0F00003C0FF23
:10186000E0FFC0FFFBFFC07FFBFF803FFFFF0000EA
:101870001F0000000E0000000E000000000000002D
:101880000000000000000000000000000000000058
:101890000000000000000000000000000000000048
:1018A0000000000000000000000000000000000038
:1018B000000000000000000000000000000000FF29
:1018C000FFFFC0FFFFFFC0FFFFFFC00000000000E0
:1018D0000000000000000000000000000000000008
:1018E00000000000000000000000000000000000F8
:1018F00000000000000000000000000000000000E8
:1019000000000000000000000000000000000000D7
:101910000E0000000E0000001F00003FFFFF007FD0
:10192000FBFF80FFFBFFC0FFE0FFC0F00003C0F043
:101930000003C000000000000000000000000000E4
:101940000000000000000000000000000000000097
:101950000000000000000000000000000000000087
:101960000000000000F0000701F0000703F000078E
:101970000FF000071F7000073E7000077C70000723
:10198000F8700007E0700007C0700007807000006A
:1019900000700000000000000000000000000000D7
:1019A0000000000000000000000000000000000037
:1019B000000000000000000000000006000000071A
:1019C000C001C007F001C007FE01C001FF83C000D5
:1019D0003FFFC00003FF8000007F000003FE000007
:1019E0003FF00001FFC00007FE000007F000000705
:1019F000C000000600000000000000000000000021
:101A000000000000000000000000000000000000D6
:101A10000000000000000000003000060070000719
:101A200001F00007C3F00007F7C00001FF800000CD
:101A30007E0000007E000001FF800007F7C0000765
:101A4000C3F0000701F00006007000000030000045
:101A50000000000000000000000000000000000086
:101A6000000000040000000780000007F0000007ED
:101A7000FE000000FFC000000FF0000000F00000BA
:101A800007F000003FC00001FE000007F000000763
:101A900080000007F0000001FE0000003FC00000D1
:101AA00007F0000000F000000FF00000FFC000078A
:101AB000FE000007F00000078000000400000000A6
:101AC0000000000000000000000000000000000016
:101AD0000000000700000007E0000007FC0000070E
:101AE000FF8000007FF0000007F0000000F0000021
:101AF00003F000007FF00007FF800007FC000007F4
:101B0000E0000007000000000000000000000000EE
:101B100000000000000000000000000000000000C5
:101B200000000000000000000000000000000007AE
:101B3000FFC00007FFE00007FFF00007FFF0000014
:101B400000F0000000700000007000000060000065
:101B500000C00007FFF00007FFF00007FFF00007DC
:101B6000FFF0000000000000000000000000000086
:101B70000000000000000000000000000000000065
:101B80000000000000000000000000000000000055
:101B900000000007000000070000003FFFC0007FBA
:101BA000FFE0007FFFF000FFFFF00007007000077C
:101BB000007000070070000000000000000000003E
:101BC0000000000000000000000000000000000015
:101BD0000000000000000000000000000000000005
:101BE0000000000000000001E0400003F06000037E
:101BF000F8E00007F8F000073C7000073C700007B1
:101C00001C7000071E7000071E7000078FF0000395
:101C10008FE0000307E000010380000000000000E7
:101C200000000000000000000000000000000000B4
:101C300000000000000000000000000000000000A4
:101C4000000000000000000000000007FFF0000797
:101C5000FFF00007FFF00007FFF00003800000071F
:101C60000000000700000007000000040000000062
:101C70000000000000000000000000000000000064
:101C80000000000000000000000000000000000054
:101C90000000000000000000000000000000000044
:101CA0007F000001FFC00003FFE00003FFE000072A
:101CB000C1F000070070000700700007007000030B
:101CC00000E00003C1C00007FFFFC007FFFFC0071F
:101CD000FFFFC007FFFFC000000000000000000081
:101CE00000000000000000000000000000000000F4
:101CF000000000000000000000000007FFFFC00718
:101D0000FFFFC007FFFFC007FFFFC003C1C0000304
:101D100000E0000700700007007000070070000777
:101D2000C1F00007FFE00003FFE00001FFC000007A
:101D30007F00000000000000000000000000000024
:101D40000000000000000000000000000000000093
:101D5000000000003E000000FF800001FFC0000303
:101D6000FFE00003C1E0000780F0000700700007FB
:101D7000007000070070000780F00003C1E000035E
:101D8000FFE00001FFC00000FF8000003E000000F7
:101D90000000000000000000000000000000000043
:101DA0000000000000000000000000000000000033
:101DB00000000007FFF00007FFF00007FFF000073A
:101DC000FFF0000180000003000000070000000792
:101DD0000000000780000007FFF00007FFF000038D
:101DE000FFF00001FFF00000000000000000000014
:101DF000000000000000000000000007FFF00007E6
:101E0000FFF00007FFF00007FFF000018000000373
:101E10000000000700000007000000078000000726
:101E2000FFF00007FFF00003FFF00001FFF00003E8
:101E3000C0000003000000070000000700000007CA
:101E400080000007FFF00007FFF00003FFF0000133
:101E5000FFF0000000000000000000000000000093
:101E60000000000000000000000000000000000072
:101E7000000000000000000000000000000000FF63
:101E8000FFF000FFFFF000FFFFF000FFFFF0000099
:101E90000000000000000000000000000000000042
:101EA0000000000000000000000000000000000032
:101EB0000000000000000000000000000000000022
:101EC00000000000000000FFFFF000FFFFF000FF37
:101ED000FFF000FFFFF000001E0000007C0000008B
:101EE000FE000003FF800007DFC0000787F0000747
:101EF00001F0000600700004003000000000000047
:101F000000000000000000000000000000000000D1
:101F100000000000000000000000000000000000C1
:101F200000000000000000000000000000000000B1
:101F30000001C0000001C0000001C0E7FFFFC0E7D2
:101F4000FFFFC0E7FFFF80E7FFFF00000000000089
:101F50000000000000000000000000000000000081
:101F60000000000000000000000000000000000071
:101F70000000000000000000000000000000000061
:101F80000000000000000000000000000000000051
:101F9000000000E7FFF000E7FFF000E7FFF000E7D8
:101FA000FFF0000000000000000000000000000042
:101FB0000000000000000000000000000000000021
:101FC0000000000000000000000000000000000011
:101FD0000000000000000000000000FFFFF000FF14
:101FE000FFF000FFFFF000FFFFF0000180000003A2
:101FF0000000000700000007000000078000000745
:10200000FFF00007FFF00003FFF00001FFF0000009
:1020100000000000000000000000000000000000C0
:1020200000000000000000000000000000000000B0
:1020300000000000000000007F000001FFC7000357
:10204000FFE78003FFF38007C1F3C0070071C007FB
:102050000071C0070071C00300E1C001C1C3C00727
:10206000FFFFC007FFFF8007FFFF0007FFFE000024
:102070000000000000000000000000000000000060
:102080000000000000000000000000000000000050
:102090000000000000000000000000070000000732
:1020A0000000003FFFF0007FFFF000FFFFF000FFA7
:1020B000FFF000E7000000E7000000E7000000E09C
:1020C0000000000000000000000000000000000010
:1020D0000000000000000000000000000000000000
:1020E00000000000000000000000000000000000F0
:1020F0007F000000FFC00001FFE00003FFE00007D9
:102100009CF000071C7000071C7000071C70000783
:102110001C7000079C700003FCF00001FCE0000054
:10212000FC6000003C4000000000000000000000D7
:10213000000000000000000000000000000000009F
:1021400000000000000000007F000001FFC000034D
:10215000FFE00003FFE00007C1F000070070000788
:10216000007000070070000300600003C1E000FF82
:10217000FFF000FFFFF000FFFFF000FFFFF00000A6
:10218000000000000000000000000000000000004F
:10219000000000000000000000000000000000003F
:1021A000000000003E000000FF800001FFC00003AF
:1021B000FFE00007C1E000070070000700700007A3
:1021C000007000070070000780F00003C1F00003FA
:1021D000C1E0000180C0000080800000000000001D
:1021E00000000000000000000000000000000000EF
:1021F000000000000000000000000000000000FFE0
:10220000FFF000FFFFF000FFFFF000FFFFF0000312
:10221000C1C0000300E00007007000070070000765
:1022200000700007C1F00003FFE00003FFE00001C1
:10223000FFC000007F000000000000000000000060
:10224000000000000000000000000000000000008E
:10225000000000000000000000000000000000007E
:1022600083C00003C7E00003CFF000078FF0000732
:102270001CF00007187000071870000718600007AE
:10228000B0E00007FFC00003FFF00003FFF0000113
:10229000FFF000000010000000000000000000003F
:1022A000000000000000000000000000000000002E
:1022B000000000000000000000000000000000001E
:1022C000000000000000000000000000000000F11D
:1022D000000000F3800000FF000000FC0000000090
:1022E00000000000000000000000000000000000EE
:1022F00000000000000000000000000000000000DE
:1023000000000000000000000000000000000000CD
:102310000001C0000001C0000001C0000001C000B9
:102320000001C0000001C0000001C0000001C000A9
:102330000001C0000001C0000001C0000001C00099
:102340000001C0000001C0000001C0000001C00089
:102350000001C000000000000000000000000000BC
:10236000000000000000000000000000000000006D
:102370000000000020000000E0000003E000000F6B
:10238000E000003FC00000FF000000F8000000F87F
:10239000000000FF0000003FC000000FE00000034D
:1023A000E0000000E000000020000000000000004D
:1023B000000000000000000000000000000000001D
:1023C000000000000000000000000000000000000D
:1023D0000000000000000000000000F00003C0F05A
:1023E0000003C0F00003C0FFFFFFC0FFFFFFC0FFFE
:1023F000FFFFC0FFFFFFC000000000000000000062
:1024000000000000000000000000000000000000CC
:1024100000000000000000000000000000000000BC
:1024200000000000000000000000000000000000AC
:10243000000000C0000000FC000000FFC000003FE2
:10244000FC000003FFC000003FF0000003F00000AC
:10245000003000000000000000000000000000004C
:10246000000000000000000000000000000000006C
:10247000000000000000000000000000000000005C
:10248000000000000000000000000000000000FF4D
:10249000FFFFC0FFFFFFC0FFFFFFC0FFFFFFC0F057
:1024A0000003C0F00003C0F00003C0000000000003
:1024B000000000000000000000000000000000001C
:1024C000000000000000000000000000000000000C
:1024D00000000000000000000000000000F000F01C
:1024E00001F000F003F000F007F000F00FF000F052
:1024F0001EF000F07CF000F0F8F000F1F0F000F3D6
:10250000E0F000F7C0F000FF00F000FE00F000FC7B
:1025100000F000F800F000F000F000000000000003
:1025200000000000000000000000000000000000AB
:1025300000000000000000C0000000E0000000F803
:10254000000000FC0000007F0000003F8000000F42
:10255000E0000003FFF00001FFF00001FFF00003C6
:10256000FFF0000FE000003F8000007F000000FC53
:10257000000000F8000000E0000000C000000000C3
:10258000000000000000000000000000000000004B
:1025900000000000003000C0007000E001F000F812
:1025A00003F000FC0FE0007F3FC0003FFF00000F82
:1025B000FC000003F800000FFC00003FFF00007F5C
:1025C0003FC000FC0FE000F803F000E001F000C0A5
:1025D000007000000030000000000000000000005B
:1025E000000000FE000000FFF80000FFFF80000375
:1025F000FFF000001FF0000000F000000FF00001ED
:10260000FFF0001FFF00007FF00000FF000000F05F
:10261000000000FF0000007FF000001FFF0000012D
:10262000FFF000000FF0000000F000001FF00001BC
:10263000FFF000FFFF8000FFF80000FE0000000038
:102640000000000000000080000000F0000000FE1C
:10265000000000FFC000007FF800000FFF00000135
:10266000FFC000001FF0000003F000000070000039
:1026700003F000001FF00001FFC0000FFF00007F0B
:10268000F80000FFC00000FE000000F00000008025
:10269000000000000000000000000000000000003A
:1026A00000000000000000FFFF0000FFFFC000FF6F
:1026B000FFE000FFFFE0000003F0000001F0000079
:1026C00000F0000000F0000000F0000000F000004A
:1026D00001F0000001F000FFFFE000FFFFE000FF5D
:1026E000FFC000FFFF00000000000000000000002D
:1026F00000000000000000000000000000000000DA
:10270000000000F0000000F0000000F0000000F009
:10271000000000F0000000F0000000FFFFF000FFEC
:10272000FFF000FFFFF000FFFFF000F0000000F0FE
:10273000000000F0000000F0000000F0000000F0D9
:102740000000000000000000000000000000000089
:102750000000000000000000000000000000000079
:102760000600001F0780003F87C0007FC7E0007F92
:10277000C3E000FBE1F000F1E0F000F1E0F000F177
:10278000E0F000F0F0F000F0F0F000F8F0F0007C85
:10279000F9F0007C7FE0003C7FE0000C3FC00000CF
:1027A0000F0000000000000000000000000000001A
:1027B0000000000000000000000000FFFFF000FF2C
:1027C000FFF000FFFFF000FFFFF000F0F00000F06E
:1027D000F00000F0F00000F0F00000F0F80000F071
:1027E000FC0000F0FF0000F9FF8000FFEFE0007F39
:1027F000E7F0003FC1F0001F00F0000000300000D3
:1028000000100000000000000000000000000000B8
:1028100000000003FC00000FFF00001FFF80003FCE
:10282000FFC0007E07E0007C03E000F801F000F04C
:1028300000F000F000F000F002F000F006F000F010
:1028400007F000F803F0007C03E0007E07E0003FA3
:10285000FFF0001FFFF8000FFF3C0003FC3C0000EE
:102860000010000000000000000000000000000058
:1028700000000000000000FFFFF000FFFFF000FF7D
:10288000FFF000FFFFF000F0F00000F0F00000F0BB
:10289000F00000F0F00000F0F00000F0F00000F9AF
:1028A000F00000FFE000007FE000003FC000001FDC
:1028B0008000000000000000000000000000000098
:1028C000000000000000000000000003FC00000FFA
:1028D000FF00001FFF80003FFFC0007E07E0007880
:1028E00003E000F801F000F000F000F000F000F06C
:1028F00000F000F000F000F000F000F801F00078C7
:1029000003E0007E07E0003FFFC0001FFF80000FD4
:10291000FF000003FC0000000000000000000000B9
:102920000000000000000000000000FFFFF000FFBA
:10293000FFF000FFFFF000FFFFF0007E0000003F0F
:102940008000000FE0000003F0000000FC00000029
:102950007F0000001FC0000007F000FFFFF000FF35
:10296000FFF000FFFFF000FFFFF00000000000009C
:10297000000000000000000000000000000000FF58
:10298000FFF000FFFFF000FFFFF000FFFFF000F09E
:10299000000000FF000000FFE000001FFE0000003C
:1029A000FFC000000FF0000000F000000FF000007A
:1029B000FFC0001FFE0000FFE00000FF000000F06D
:1029C000000000FFFFF000FFFFF000FFFFF000FF3E
:1029D000FFF0000000000000000000000000000008
:1029E00000000000000000FFFFF000FFFFF000FF0C
:1029F000FFF000FFFFF0000000F0000000F000001A
:102A000000F0000000F0000000F0000000F0000006
:102A100000F0000000F0000000F0000000F00000F6
:102A200000000000000000000000000000000000A6
:102A3000000000000000000000000000000000FF97
:102A4000FFF000FFFFF000FFFFF000FFFFF00000CD
:102A5000F8000001F0000003E0000007E000000FB4
:102A6000F000001FFC00003EFF00007C3F8000F8EB
:102A70001FE000F007F000E001F000C000700080EF
:102A80000030000000000000000000000000000016
:102A90000000000000000000000000000000000036
:102AA000000000000F0000000FC000000FE0000059
:102AB0000FE0000001F0000000F0000000F0000056
:102AC00000F0000001F000FFFFE000FFFFE000FF6A
:102AD000FFC000FFFF000000000000000000000039
:102AE00000000000000000000000000000000000E6
:102AF00000000000000000000000000000000000D6
:102B000000000000000000000000000000000000C5
:102B1000000000FFFFF000FFFFF000FFFFF000FFEC
:102B2000FFF00000000000000000000000000000B6
:102B30000000000000000000000000000000000095
:102B40000000000000000000000000000000000085
:102B5000000000FFFFF000FFFFF000FFFFF000FFAC
:102B6000FFF00000F0000000F0000000F0000000A6
:102B7000F0000000F0000000F0000000F000000095
:102B8000F00000FFFFF000FFFFF000FFFFF000FF8C
:102B9000FFF0000000000000000000000000000046
:102BA000000000000000000000000001F800000F1D
:102BB000FF00001FFF80003FFFC0007E07E0007C99
:102BC00003E000F801E000F000F000F000F000F099
:102BD00000F000F078F000F078F000F078F000F805
:102BE00079F0007C79E0007E7FE0003E7FC0001C31
:102BF0007FC0000C7F80000000000000000000008B
:102C0000000000000000000000000000000000FFC5
:102C1000FFF000FFFFF000FFFFF000FFFFF000F00B
:102C2000F00000F0F00000F0F00000F0F00000F024
:102C3000F00000F0F00000F0F00000F0F00000F014
:102C4000F00000F0000000000000000000000000A4
:102C50000000000000000000000000000000000074
:102C600000000000000000FFFFF000FFFFF000FF89
:102C7000FFF000FFFFF000F0F0F000F0F0F000F0E7
:102C8000F0F000F0F0F000F0F0F000F0F0F000F004
:102C9000F0F000F0F0F000F0F0F000F0F0F000F0F4
:102CA000F0F000F000F00000000000000000000064
:102CB0000000000000000000000000000000000014
:102CC000000000FFFFF000FFFFF000FFFFF000FF3B
:102CD000FFF000F000F000F000F000F000F000F075
:102CE00000F000F000F000F000F000F000F000F85C
:102CF00001F0007E07E0007FFFE0003FFFC0000F13
:102D0000FF000003FC0000000000000000000000C5
:102D1000000000000000000000000003FC00000FA5
:102D2000FF00001FFF80003FFFC0007E07E000782B
:102D300001E000F801F000F000F000F000F000F019
:102D400000F000F000F000F001F000F801F0007C6D
:102D500007E0007E0FE0003E0FC0001C078000046B
:102D6000060000000000000000000000000000005D
:102D7000000000000000000000000000000000FF54
:102D8000FFF000FFFFF000FFFFF000FFFFF000F09A
:102D9000F0F000F0F0F000F0F0F000F0F0F000F0F3
:102DA000F0F000F0F0F000F9F0F000FFF9F0007F33
:102DB000FFF0003FBFE0001E1FC000000F800000BA
:102DC0000000000000000000000000000000000003
:102DD000000000000030000001F000000FF00000D3
:102DE0007FF00003FFE0001FFF0000FFFE0000FF78
:102DF000CE0000FE0E0000F00E0000FE0E0000FFF0
:102E0000CE00007FFE00000FFF000001FFE0000089
:102E10003FF0000007F0000000F00000001000008C
:102E20000000000000000000FFF00003FFFC000FA6
:102E3000E03E001F000F003E1F878038FFE38079CF
:102E4000FFE1C073FFF1C077E1F1C0E7C0F0C0E778
:102E500080E0C0E781C0C0E3C3E0C0E1FFF0C0E7AD
:102E6000FFF0C0E7FFF0C0F7F871C0770071C078DD
:102E700000E1C03C01E3C01F07C7801FFF8F800334
:102E8000FF0E000000000000000000000000000035
:102E90000000000C0000003C0000007C0000007CF2
:102EA000000000F8000000E01CF000E07CF000E012
:102EB0007CF000E0FCF000F1F000007FE000007F1B
:102EC000C000003F8000001F000000000000000064
:102ED00000000000000000000000000000000000F2
:102EE0000000000000000000000000000000001EC4
:102EF00003C0000E0780000F0780000F0780000747
:102F00000F0000078F0000038E0000039E000001E9
:102F1000DC000001DC000001FC000000F800000003
:102F2000F800000070000000000000000000000039
:102F30000000000000000000000000000000000091
:102F40000000000000000000000000078F000007E4
:102F50008F0000078F0000078F0000078F00000719
:102F60008F0000078F0000078F0000078F00000709
:102F70008F0000078F0000078F0000078F000007F9
:102F80008F000000000000000000000000000000B2
:102F90000000000000000000000000000000000031
:102FA000000000000000000070000000F8000000B9
:102FB000F8000001FC000001DC000001DC0000035F
:102FC0009E0000038E0000078F0000070F00000F17
:102FD0000780000F0780000E0780001E03C000005E
:102FE00000000000000000000000000000000000E1
:102FF00000000000000000000000000000000000D1
:1030000000000000000000000000000000000000C0
:10301000000000000000000780F1000780F3800737
:1030200080FF000780FC000000000000000000009E
:103030000000000000000000000000000000000090
:103040000000000000000000000000000000000080
:103050000000000000000000000000000000000070
:103060000000000000000000000000000000000060
:103070000000000780F0000780F0000780F00007E4
:1030800080F00000000000000000000000000000D0
:103090000000000000000000000000000000000030
:1030A0000000000000000000000000000000000020
:1030B00000000000000000000000000F8300003F3F
:1030C000E3C0007FF3E0007FF3F000F8F9F000F0D8
:1030D00078F000F078F000F078F000F078F0007808
:1030E000F1E0007FFFE0003FFFC0001FFF8000070E
:1030F000FE000000000000000000000000000000D2
:1031000000000000000000000000000000000000BF
:10311000000000000000001E0F80003F1FC0007F65
:10312000BFE0007FFFE000F1F0F000E0E07000E0C1
:10313000E07000E0E07000E0E07000F1F0F0007F8F
:10314000FFE0007FBFE0003F1FC0001E0F800000B7
:10315000000000000000000000000000000000006F
:10316000000000000000000000000000000000005F
:10317000000000F0000000F0000000F0000000F08F
:1031800000F000F00FF000F03FF000F0FFF000F171
:10319000FF0000F7F00000FFC00000FF000000FC8F
:1031A000000000F8000000F0000000000000000037
:1031B000000000000000000000000000000000000F
:1031C00000000000000000000000000000000003FC
:1031D000FE00001FFF80003FFFC0007FFFE000787F
:1031E000F1E000F1E0F000F1E0F000F1E0F000F1DA
:1031F000E0F000F9F1F0007CFFE0007CFFE0003C33
:103200007FC0000C1F000000000000000000000054
:1032100000000000000000000000000000000000AE
:103220000000000000000000000000007300001F0C
:10323000F3C000FFF3E000FFF3E000FFE1F000F176
:10324000E0F000F1E0F000F1E0F000F1E0F000F17A
:10325000F1F000F0FFE000F0FFE000F07FC00000C0
:103260001F0000000000000000000000000000003F
:10327000000000000000000000000000000000004E
:1032800000000000000000000F0000001F00000010
:103290007F000000F7000003E70000078700001F21
:1032A0000700003C070000FFFFF000FFFFF000FFF9
:1032B000FFF000FFFFF00000070000000700000023
:1032C00000000000000000000000000000000000FE
:1032D00000000000000000000000000000000000EE
:1032E0000000000C0700003C0780007C07C0007C49
:1032F00007E000F801F000F0E0F000F0E0F000F08E
:10330000E0F000F9E0F0007FF1F0007FBFE0003F67
:103310003FE0001E1FC000000F0000000000000082
:10332000000000000000000000000000000000009D
:103330000000000000000000000000000000000E7F
:103340000030003E00F0007E01F0007E03F000F847
:1033500007F000F00FF000F01EF000F03CF000F07D
:1033600078F000F8F0F0007FF0F0007FE0F0003F30
:10337000C0F0001F00F0000000000000000000008E
:10338000000000000000000000000000000000003D
:10339000000000000000000000000000000000002D
:1033A00000000000000000078000000F0000000F78
:1033B0000000001E0000003C0000007FFFF000FF46
:1033C000FFF000FFFFF000FFFFF000000000000032
:1033D00000000000000000000000000000000000ED
:1033E00000000000000000000000000000000000DD
:1033F0000000000000000007FE00001FFF80003FEB
:10340000FFC0007FFFE000FC03F000F000F000F0E0
:1034100000F000F000F000F000F000FC03F0007F8E
:10342000FFE0003FFFC0001FFF800007FE0000001C
:10343000000000000000000000000000000000008C
:10344000000000000000000000000000000000007C
:10345000000000000000000000000000000000006C
:103460000030000003F000003FF00003FFC0003F09
:10347000FC0000FFC00000FC000000C000000000D5
:10348000000000000000000000000000000000003C
:10349000000000000000000000000000000000002C
:1034A000000000000000000000000000000000001C
:1034B000000000000000000000000000000000000C
:1034C0000000000000F0000000F0000000F000002C
:1034D00000F00000000000000000000000000000FC
:1034E00000000000000000000000000000000000DC
:1034F00000000000000000000000000000000000CC
:10350000000000000000000000000000F0000000CB
:10351000F0000000F0000000F0000000F0000000EB
:10352000F0000000F0000000F0000000F0000000DB
:10353000F0000000F0000000F0000000F0000000CB
:10354000F00000000000000000000000000000008B
:10355000000000000000000000000000000000006B
:10356000000000000000000000000000000000005B
:1035700000000000000000000000000000F100005A
:1035800000F3800000FF000000FC000000000000CD
:10359000000000000000000000000000000000002B
:1035A000000000000000000000000000000000001B
:1035B000000000000000000000000000000000000B
:1035C00000000000F0000000F0000000F00000002B
:1035D000F0000000F000001FFF80001FFF80001FB0
:1035E000FF80001FFF800000F0000000F0000000DE
:1035F000F0000000F0000000F000000000000000FB
:1036000000000000000000000000000000000000BA
:1036100000000000000000000000000000000002A8
:1036200000000006000000030C0000031C00000165
:10363000B8000001F000001FC000001FC000000122
:10364000F0000001B80000031C0000030C0000069D
:103650000000000200000000000000000000000068
:10366000000000000000000000000000000000005A
:10367000000000000000000000000000000000004A
:10368000000000000000000000000080000040F08A
:103690000003C0FF003FC07FFFFF801FFFFE000749
:1036A000FFF80000FF8000000000000000000000A4
:1036B000000000000000000000000000000000000A
:1036C00000000000000000000000000000000000FA
:1036D00000000000000000000000000000000000EA
:1036E0000000000000000000FF800007FFF8001F3E
:1036F000FFFE007FFFFF80FF003FC0F00003C0809F
:103700000000400000000000000000000000000079
:1037100000000000000000000000000000000000A9
:103720000000000000000000000000000000000099
:103730000000000000000000000000000000000089
:1037400000000000000000F1000000F3800000FF16
:10375000000000FC0000000000000000000000006D
:103760000000000000000000000000000000000059
:103770000000000000000000000000000000000049
:103780000000000000000000000000000F800000AA
:103790001FC0003C3FE0007F7FE0007FF8F000FFAB
:1037A000F07000E3E07000E1F07000E1F87000F309
:1037B000FEF000FFBFF0007F1FE0007E0FC0001C86
:1037C0000FC000001FE000001FF0000018E0000024
:1037D00000400000000000000000003F0000007FEB
:1037E000800000FFC00000C0C00000C0C00000C0DA
:1037F000C01800FFC078007F81F8003F03E00000A0
:103800000F8000003E000000FC000003F000000FED
:10381000C000003F07E000FC0FF000F01FF800C000
:103820001818000018180000181800001FF80000F1
:103830000FF0000007E000000000000000000000A2
:10384000000000000000000F8180001FC1E0003F69
:10385000E1F0003FF1F00078F0780070F03800FF00
:10386000FFFC00FFFFFC0070783800783C78003CDB
:103870003FF0003C3FF0001C1FE0000C0F800000F8
:103880000000000000000000000000000000000038
:103890000000000000000000000000000000000721
:1038A0000E0000070E7000070FF00007FFF0003F4A
:1038B000FFC000FFFE0000FF0E0000E70E00000743
:1038C0000E7000070FF00007FFF0003FFFC000FF81
:1038D000FE0000FF0E0000E70E0000070E000000D3
:1038E00000000000000000000000000000000000D8
:1038F00000000000000000000000000000000000C8
:1039000000000000000000F1000000F3800000FF54
:10391000000000FC000000000000000000000000AB
:10392000000000F1000000F3800000FF000000FC38
:103930000000000000000000000000000000000087
:103940000000000000000000000000000000000077
:103950000000000000000000000000000000000067
:10396000000000000000000000000000000000FF58
:1039700080F000FFFCF000FFFCF000FF80F0000092
:103980000000000000000000000000000000000037
:103990000000000000000000000000000000000027
:1039A0000000000000000000000000000000000017
:1039B0000000000000000000000000000000000007
:1039C00000000000000000000000000000000000F7
:1039D00000000000000000000000000000000000E7
:1039E00000000000000000000000000000000000D7
:1039F00000000000000000000000000000000000C7
:103A000000000000000000000000000000000000B6
:103A10008800000198000003FC00000FFF00001F59
:103A2000FF80003FFFC0007D9BE0007999E000F936
:103A300098F000F198F000F198F000F198F000F1A2
:103A400098F000F190F000F101F0007801E0000042
:103A50000000000000000000000000000000000066
:103A60000000000000000000000000000000000056
:103A7000E0C0001FE3F0003FFFE0007FFFE0007FB9
:103A8000FFE000F0FCE000E0E0E000E0E0E000E06B
:103A9000E07000F0E070007C0070007C0070003C82
:103AA0000070000C00F0000000600000000000004A
:103AB0000000000000000000000000000000000006
:103AC00000000000000000000000000000000000F6
:103AD00000000000000000000000000000000000E6
:103AE00000000000000000000000000000000000D6
:1043C00000000000400000006000000070000000DD
:1043D000780000007C0000007E00007FFF00007F6E
:1043E000FF80007FFFC0007FFF80007FFF00000094
:1043F0007E0000007C0000007800000070000000DB
:10440000600000004000000000000000000000000C
:10441000000000000000000000000000000000009C
:1044200040000000C0000001C0000003C000000701
:10443000C000000FC000001FFFC0003FFFC0007F92
:10444000FFC0003FFFC0001FFFC0000FC0000007FB
:10445000C0000003C0000001C0000000C000000058
:10446000400000000000000000000000000000000C
:10447000000000000000000000000001F00000014A
:10448000F0000001F0000001F0000001F000000168
:10449000F0000001F0000001F000007FFFC0003FCD
:1044A000FF80001FFF00000FFE000007FC0000035C
:1044B000F8000001F0000000E000000040000000F3
:1044C00000000000000000000000000000000000EC
:1044D000000000000000000040000000E0000001BB
:1044E000F0000003F8000007FC00000FFE00001FB2
:1044F000FF00003FFF80007FFFC00001F0000001CF
:10450000F0000001F0000001F0000001F0000001E7
:10451000F0000001F0000001F000000000000000C9
:104520000000000000000000010001008000800089
:104530004000000001004088000000000000A0884A
:104540000000000079451088000000000529105087
:10455000000000003911F020000000004129102067
:10456000000000003D451020000000000000000099
:1045700000000842108421084200FFFFFFFFFFFFF8
:10458000FF0000000000000002000000000000002A
:104590000200000000000000020000000000000017
:1045A0000200000000000000030000000000000006
:1045B00002000000000000000200000000000000F7
:1045C00002000000000000000200000000000000E7
:1045D00003000000000000000200000000000000D6
:1045E00002000000000000000200000000000000C7
:1045F00002000000000000000300000000000000B6
:1046000002000000000000000200000000000000A6
:104610000200000000000000020000000000000096
:104620000300000000000000020000000000000085
:104630000200000000000000020000000000000076
:104640000200000000000000030000000000000065
:104650000200000000000000020000000000000056
:104660000200000000000000020000000000000046
:104670000300000000000000020000000000000035
:104680000200000000000000020000000000000026
:104690000200000000000000030000000000000015
:1046A0000200000000000000020000000000000006
:1046B000026300000000000002140000000000007F
:1046C00003080000000000000214000000000000C9
:1046D0000263000000000000020000000000000073
:1046E00002000000000000000300000000000000C5
:1046F0000200000000000000021F00000000000097
:10470000022400000000000002440000000000003D
:104710000324000000000000021F00000000000051
:104720000200000000000000021100000000000074
:10473000020A000000000000030400000000000066
:10474000020A00000000000002110000000000004A
:104750000200000000000000025F000000000000F6
:10476000030000000000000002090000000000003B
:10477000021500000000000002150000000000000B
:1047800002150000000000000312000000000000FD
:104790000200000000000000020000000000000015
:1047A0000200000000000000020000000000000005
:1047B00003000000000000000200000000000000F4
:1047C00002000000000000000200000000000000E5
:1047D00002000000000000000300000000000000D4
:1047E00002000000000000000200000000000000C5
:1047F00002000000000000000200000000000000B5
:1048000003000000000000000200000000000000A3
:104810000200000000000000020000000000000094
:104820000200000000000000030000000000000083
:104830000200000000000000020000000000000074
:104840000200000000000000020000000000000064
:104850000300000000000000020000000000000053
:104860000200000000000000020000000000000044
:104870000200000000000000030000000000000033
:104880000200000000000000020000000000000024
:104890000200000000000000020000000000000014
:1048A0000300000000000000020000000000000003
:1048B00002000000000000000200000000000000F4
:1048C00002000000000000000300000000000000E3
:1048D00002000000000000000200000000000000D4
:1048E00002000000000000000200000000000000C4
:1048F00003000000000000000200000000000000B3
:1049000002000000000000000200000000000000A3
:104910000200000000000000030000000000000092
:104920000200000000000000020000000000000083
:02493000020083
:0E493200D9CFE6FFE1CFD9FF040EE126FE0E3D
:10494000DB5026E0050EDE6E0D0EDE6EDE6ADD6AE1
:10495000DD52DD52D9CFE9FFDACFEAFFEECF14F016
:10496000EECF15F0EECF16F0EFCF17F01450151074
:10497000161017100AE0D9CFE9FFDACFEAFFEE06EA
:10498000000EEE5AEE5AEE5AE5D7FE0EDB06D7D7EA
:10499000040EE15C02E2E16AE552E16EE552E7CF26
:1049A000D9FF12009AEC35F0E66A10D8E5521200F1
:1049B000D9CFE6FFE1CFD9FFFE0EDBCFE6FFDDEC7E
:1049C00035F0E552E552E7CFD9FF1200D9CFE6FF27
:1049D000E1CFD9FF040EE126FE0EDB5002E0FE0E11
:1049E000DB68DE6ADD6ADECF14F0DDCF15F0080E7D
:1049F000145C000E15582EE2020EDB6A030EDB6A11
:104A0000020EDBCF14F0030EDBCF15F0800E145C2A
:104A1000000E15581AE2DECFE6FFDDCFE6FF020EEC
:104A2000DBCFE6FF030EDBCFE6FFFE0EDBCFE6FFBC
:104A3000E668F3EC35F0146E060EE15E1450020EDB
:104A4000DB2A030E01E3DB2ADBD7DF2A010E01E3B9
:104A5000DB2AC9D7040EE15C02E2E16AE552E16EAD
:104A6000E552E7CFD9FF1200D9CFE6FFE1CFD9FF5A
:104A7000210EE126D950F50FE96EFF0EDA20EA6E1D
:104A8000FF0EEE1802E1FF0EED1806E1F50EA0C0D4
:104A9000DBFFF60EA1C0DBFFD950F30FE96EFF0E6E
:104AA000DA20EA6EFF0EEE1802E1FF0EED1806E1C5
:104AB000F30EA2C0DBFFF40EA3C0DBFFD950F90F49
:104AC000E96EFF0EDA20EA6EEE50ED1001E17FD0C4
:104AD000F90EDBCFF6FFDB2AFA0EDBCFF7FF01E39F
:104AE000DB2A0800F550E66ED950080FE96EDACFE0
:104AF000EAFFE552E750EE6EED6AD950080FE96E15
:104B0000DACFEAFFEE50ED6EEF6AF90EDBCFF6FF7B
:104B1000DB2AFA0EDBCFF7FF01E3DB2A0800F550B2
:104B2000146E156AD950080FE96EDACFEAFF1450F7
:104B3000EE261550ED22F90EDBCFF6FFDB2AFA0E3A
:104B4000DBCFF7FF01E3DB2A0800F550E66ED95012
:104B50000A0FE96EDACFEAFFE552E750EE6EED6A32
:104B6000D9500A0FE96EDACFEAFFEE50ED6EEF6A28
:104B7000F90EDBCFF6FFDB2AFA0EDBCFF7FF01E3FE
:104B8000DB2A0800F550146E156AD9500A0FE96E39
:104B9000DACFEAFF1450EE261550ED22F90EDBCFE6
:104BA000F6FFDB2AFA0EDBCFF7FF01E3DB2A080072
:104BB0000C0EF5CFDBFFD950080FE96EDACFEAFF14
:104BC000800ED880EE54000EED540AE202D0BFEF02
:104BD0002CF0800EF36E080EF3CFDBFF090EDB6ABC
:104BE000D9500A0FE96EDACFEAFF400ED880EE54B2
:104BF000000EED5407E2400EF36E0A0EF3CFDBFF1A
:104C00000B0EDB6AD950080FE96EDACFEAFFEE50DF
:104C1000ED1002E1BFEF2CF0D9500A0FE96EDACFA8
:104C2000EAFFEE50ED1002E1BFEF2CF0F70EDB5083
:104C30007F0B51E0D950F90FE96EFF0EDA20EA6ED2
:104C4000EE50ED1048E00A0EDBCF1AF00B0EDBCF72
:104C50001BF0030ED8901B321A32E804FBE1010E60
:104C60001A26000E1B22080EDBCF08F0090EDBCF40
:104C700009F01AC00DF01BC00EF052EC37F006C060
:104C800018F007C019F07F0EE76EF70EDBCF16F0B5
:104C9000F80EDBCF17F0E7501616176A7F0ED88094
:104CA0001656000E175616C008F017C009F018C0A7
:104CB0000DF019C00EF052EC37F006C014F007C02A
:104CC00015F0D950F90FE96EFF0EDA20EA6E145094
:104CD000EE261550ED22F70EDB507F0B01E17BD263
:104CE000F80EDB50020B01E176D2170EDB68180ECE
:104CF000DB6A190EDB681A0EDB6A1C0EDB6A1D0EFE
:104D0000DB6A1E0EDB6A0A0EDB50070B13E10A0E8C
:104D1000DBCF14F00B0EDBCF15F0030ED89015325D
:104D20001432E804FBE1130E14C0DBFF140E15C0AF
:104D3000DBFF16D00A0EDBCF14F00B0EDBCF15F025
:104D4000030ED89015321432E804FBE1010E14264C
:104D5000000E1522130E14C0DBFF140E15C0DBFF6E
:104D6000F50EDBCF08F0F60EDBCF09F0040E08C01D
:104D7000DBFF050E09C0DBFF040EDBCF16F0050ECE
:104D8000DBCF17F0F50EDB50165C146EF60EDB5021
:104D90001758156E080EDBCF18F0090EDBCF19F08F
:104DA0001850145C1950155801E37ED01B0EDB6AB5
:104DB000060EDB6A070EDB6A060EDBCF14F0070E69
:104DC000DBCF15F0130EDBCF16F0140EDBCF17F090
:104DD0001650145C175015585FE2D950F90FE96E60
:104DE000FF0EDA20EA6EEE50ED100DE0F90EDBCF8B
:104DF000F6FFDB2AFA0EDBCFF7FF01E3DB2A080020
:104E00000D0EF5CFDBFF1D0EDB2A1E0E01E3DB2AA4
:104E1000800EDF6EDF50000826E20D0EDB50DF143F
:104E20001DE0170EDB50F36E1B0EDBCFF4FFF350CB
:104E3000F45C06E21B0EDB50E76E170EE7CFDBFFDC
:104E40001B0EDBCF14F0180EDB50D880145406E292
:104E50001B0EDB50E76E180EE7CFDBFF1B0EDB2AC5
:104E6000DF90DF42D7D70D0EDB5010E01C0EDB5079
:104E7000E76E1A0EE7CFDBFF190EDB50FF0806E1E5
:104E80001C0EDB50E76E190EE7CFDBFF060EDB2AA8
:104E9000070E01E3DB2A90D71C0EDB2A040EDB2A67
:104EA000050E01E3DB2A68D7D950F90FE96EFF0E32
:104EB000DA20EA6EEE50ED1010E01D0EDBCF14F09C
:104EC0001E0EDBCF15F0D950F90FE96EFF0EDA2078
:104ED000EA6E1450EE5E1550ED5A180EDB5004E0E9
:104EE000170EDB50FF080EE1170EDB6A0A0EDBCF50
:104EF00014F00B0EDBCF15F01406000E155A180E29
:104F000014C0DBFF1A0EDB5004E0190EDB50FF0863
:104F10000EE1190EDB6A080EDBCF14F0090EDBCFB1
:104F200015F01406000E155A1A0E14C0DBFFF80E09
:104F3000DB50100B01E1EDD0F50EDBCFA0F0F60E4B
:104F4000DBCFA1F0F30EDBCFA2F0F40EDBCFA3F0AA
:104F5000F80EDB50010B6FE00001AA51AB1132E0FB
:104F6000180EDBCFE6FF170EDB50E552E75C010FB2
:104F7000146E1450AA5D000EAB591AE3180EDBCF65
:104F8000E6FF170EDB50E552E75C010F146E156A61
:104F90001450AA5F1550AB5BAE5107E1AA51AB119B
:104FA00003E0AAC0AEF001D0AE69BFEF2CF00AD08A
:104FB000170EDBCFE7FFAA51E726170EE7CFDBFF7F
:104FC000AA6BAB6B0001AC51AD1103E1BFEF2CF04C
:104FD00031D0180EDBCFE6FF170EDB50E552E75C51
:104FE000010F146E156AAC51145CAD5115580FE2E7
:104FF000180EDBCFE6FF170EDB50E552E75C010F22
:10500000146E156A1450AC5F1550AD5B13D0170EBB
:10501000DB50146E156AACC016F0ADC017F0160662
:10502000000E175A14501624E76E180EE7CFDBFF58
:10503000AC6BAD6B6ED00001AA51AB1132E01A0E11
:10504000DBCFE6FF190EDB50E552E75C010F146E73
:105050001450AA5D000EAB591AE31A0EDBCFE6FF1F
:10506000190EDB50E552E75C010F146E156A1450FF
:10507000AA5F1550AB5BAE5107E1AA51AB1103E03B
:10508000AAC0AEF001D0AE69BFEF2CF00AD0190E65
:10509000DBCFE7FFAA51E726190EE7CFDBFFAA6BAC
:1050A000AB6B0001AC51AD1103E1BFEF2CF031D07F
:1050B0001A0EDBCFE6FF190EDB50E552E75C010F5D
:1050C000146E156AAC51145CAD5115580FE21A0EEE
:1050D000DBCFE6FF190EDB50E552E75C010F146EE3
:1050E000156A1450AC5F1550AD5B13D0190EDB5030
:1050F000146E156AACC016F0ADC017F01606000E9F
:10510000175A14501624E76E1A0EE7CFDBFFAC6B6C
:10511000AD6BF80EDB50010B5EE11A0EDB50166E24
:10512000176A080EDBCF08F0090EDBCF09F0165026
:10513000085C146E17500958156E1406000E155AA7
:10514000D950080FE96EDACFEAFF1450EE5E155021
:10515000ED5A190EDB50146E156AD950080FE96E1E
:10516000DACFEAFF1450EE5E1550ED5AD950F90F20
:10517000E96EFF0EDA20EA6EEE50ED102CE00A0E1A
:10518000DBCF18F00B0EDBCF19F0030ED8901932DD
:105190001832E804FBE1010E1826000E1922190E40
:1051A000DB50166E176A16C008F017C009F018C059
:1051B0000DF019C00EF052EC37F006C014F007C025
:1051C00015F0D950F90FE96EFF0EDA20EA6E14508F
:1051D000EE261550ED22070EE76EF30EDBCF14F02E
:1051E000F40EDBCF15F0E7501416156A100E14C03C
:1051F000DBFFF70EDB507F0B1FE0F80EDB50020BDE
:105200001BE0F80EDB50010B17E0170EDB50166E9B
:10521000176AF30EDBCF08F0F40EDBCF09F016505F
:10522000085C146E17500958156E070E1416000E00
:105230001516100E14C0DBFF0A0EDB50070B13E12E
:105240000A0EDBCF14F00B0EDBCF15F0030ED89057
:1052500015321432E804FBE1130E14C0DBFF140E08
:1052600015C0DBFF16D00A0EDBCF14F00B0EDBCF20
:1052700015F0030ED89015321432E804FBE1010E4C
:105280001426000E1522130E14C0DBFF140E15C0D9
:10529000DBFF100EDB50166E176A0A0EDB50162469
:1052A000146E0B0EDB501720156E1450070B19E10E
:1052B000100EDB50166E176A0A0EDB501624146EA1
:1052C0000B0EDB501720156E030ED89015321432DA
:1052D000E804FBE1150E14C0DBFF160E15C0DBFF62
:1052E0001CD0100EDB50166E176A0A0EDB50162407
:1052F000146E0B0EDB501720156E030ED89015326E
:105300001432E804FBE1010E1426000E1522150EDE
:1053100014C0DBFF160E15C0DBFFF50EDBCF08F067
:10532000F60EDBCF09F0040E08C0DBFF050E09C046
:10533000DBFF040EDBCF16F0050EDBCF17F0F50E0A
:10534000DB50165C146EF60EDB501758156E080E07
:10535000DBCF18F0090EDBCF19F01850145C195090
:10536000155801E3C9D20E0EDB6AF70EDB507F0B36
:1053700029E0F80EDB50020B25E0F80EDB50010BA4
:1053800021E0100EDBCFE6FF170EDB50E552E724DD
:10539000E76E1F0EE7CFDBFF180EDB50166E176AA5
:1053A0000A0EDBCF08F00B0EDBCF09F01650085CBD
:1053B000146E17500958156E1406000E155A200E5B
:1053C00014C0DBFF060EDB6A070EDB6A060EDBCFBE
:1053D00014F0070EDBCF15F0150EDBCF16F0160E0E
:1053E000DBCF17F01650145C1750155801E37ED22E
:1053F000060EDBCF14F0070EDBCF15F0130EDBCF5C
:1054000016F0140EDBCF17F01650145C1750155819
:1054100073E2D950F90FE96EFF0EDA20EA6EEE5012
:10542000ED100DE0F90EDBCFF6FFDB2AFA0EDBCF35
:10543000F7FF01E3DB2A08000D0EF5CFDBFFF70EC7
:10544000DB50800B06E00D0EDB1CE76E0D0EE7CF88
:10545000DBFF100EDBCFE6FF080EE552D880E754E5
:10546000146ED9500E0FE96EDACFEAFF1450070B15
:1054700004E0EF42EF9EE806FCE10F0EDB6A110E3E
:10548000DB6A100EDB50F36E110EDBCFF4FFF3502E
:10549000F45C31E20F0EDBCFF3FFF390F342F3CF76
:1054A000DBFF0D0EDBA00AD0800E146E0F0EDBCFDB
:1054B000E7FF1450E7260F0EE7CFDBFF0D0EDBCF23
:1054C000F3FFF390F342F3CFDBFFD950110FE96EF6
:1054D000DACFEAFF0E0EDB50EFCFE7FFE75204E032
:1054E000E8427F0BE706FCE1010B02E00D0EDB8ECC
:1054F000110EDB2AC6D73ED00D0EDB6A100EDBCFB5
:10550000E6FF080EE552D880E754146ED9500E0F0E
:10551000E96EDACFEAFF1450070B04E0EF42EF9E8A
:10552000E806FCE1110EDB6A100EDB50F36E110E83
:10553000DBCFF4FFF350F45C1DE20D0EDBCFF3FF85
:10554000F390F342F3CFDBFFD950110FE96EDACFBE
:10555000EAFF0E0EDB50EFCFE7FFE75204E0E84230
:105560007F0BE706FCE1010B02E00D0EDB8E110E56
:10557000DB2ADAD7120EDB68D950060FE96EDACFD4
:10558000EAFFEE50ED100DE1D950120FE96EDACFBF
:10559000EAFF100EDB50070B04E0EF42EF9EE80637
:1055A000FCE1060EDBCF14F0070EDBCF15F0150E75
:1055B000DBCF16F0160EDBCF17F01606000E175ACB
:1055C0001650141802E1175015185FE1100EDB5049
:1055D000166E176A0A0EDB501624146E0B0EDB5083
:1055E0001720156E070E1416000E1516070E141848
:1055F00001E1155046E0060E141801E115503DE09A
:10560000050E141801E1155033E0040E141801E1E1
:10561000155028E0030E141801E115501CE0020E8D
:10562000141801E115500FE0010E141801E1155096
:1056300001E02AD0120EDB90DB92DB94DB96DB9844
:10564000DB9ADB9C22D0120EDB90DB92DB94DB96A4
:10565000DB98DB9A1AD0120EDB90DB92DB94DB96A0
:10566000DB9813D0120EDB90DB92DB94DB960DD02F
:10567000120EDB90DB92DB9408D0120EDB90DB92F3
:1056800004D0120EDB9001D000D0F70EDB507F0B60
:1056900001E1A7D0F80EDB50020B01E1A2D0F80E19
:1056A000DB50010B01E19DD01F0EDB5024E01F0EEB
:1056B000DB50DF6EDF50080802E2080EDF6EDE52BC
:1056C000800EDD6EDF50000816E2010EDB1C146E4A
:1056D000120EDBCFE7FF1450E716120EE7CFDBFF09
:1056E000010EDBCFF3FFF390F342F3CFDBFF1F0E8E
:1056F000DB06DF06E7D7200EDB5073E0100EDB5031
:10570000E76E0A0EDBCF16F00B0EDBCF17F0E7507B
:105710001626000E1722060EDBCF18F0070EDBCF81
:1057200019F0030ED89018361936E804FBE118502A
:10573000165C146E19501758156E020E14C0DBFF5C
:10574000030E15C0DBFF200EDB50166E176A020E2B
:10575000DBCF08F0030EDBCF09F01650085C146EA7
:1057600017500958156E080E145C000E155839E2D2
:10577000200EDB5036E0200EDB50166E176A020E4C
:10578000DBCF08F0030EDBCF09F01650085C146E77
:1057900017500958156E080ED8801456000E15566D
:1057A0001450DF6E200EDBCFE7FFDF50E75E200EE8
:1057B000E7CFDBFF010EDB68DF50000809E2010ED6
:1057C000DBCFF3FFF39EF346F3CFDBFFDF06F4D727
:1057D000120EDBCFE7FF010EDB50E716120EE7CF0C
:1057E000DBFFF80EDB500C0B75E1F70EDB507F0B87
:1057F00047E0F80EDB50020B43E0F80EDB50010BE4
:105800003FE0170EDB50186E196AF30EDBCF08F07D
:10581000F40EDBCF09F01850085C166E19500958C9
:10582000176E060EDBCF1AF0070EDBCF1BF0030E50
:10583000D8901A361B36E804FBE116501A24146E71
:1058400017501B20156E030ED89015321432E80441
:10585000FBE114C0E6FF15C0E6FF040EDBCFE6FF58
:10586000050EDBCFE6FF0D0EDBCFE6FF120EDBCF22
:10587000E6FFF3EC35F01C6E060EE15E1C502AD0FC
:10588000F30EDBCF16F0F40EDBCF17F0030ED8903B
:1058900017321632E804FBE1060EDB501624146EB4
:1058A000070EDB501720156E14C0E6FF15C0E6FF8B
:1058B000040EDBCFE6FF050EDBCFE6FF0D0EDBCFE0
:1058C000E6FF120EDBCFE6FFF3EC35F0186E060EA6
:1058D000E15E18500F0EDB50E76E0E0EE7CFDBFFD8
:1058E000060EDB2A070E01E3DB2A70D5040EDB2A45
:1058F000050E01E3DB2A1DD5040EDBCFA0F0050E5B
:10590000DBCFA1F00A0EDBCF14F00B0EDBCF15F0CE
:10591000F30EDB50000114240001A26FF40EDB50E3
:10592000000115200001A36FF70EDB507F0B27E06D
:10593000F80EDB50020B23E0F80EDB50010B1FE0EA
:10594000180EDB50166E176A0A0EDBCF08F00B0E2E
:10595000DBCF09F01650085C146E17500958156E0D
:105960001406000E155A1450A25F1550A35B170EB3
:10597000DB50146E156A1450A25F1550A35B210E04
:10598000E15C02E2E16AE552E16EE552E7CFD9FF60
:105990001200D9CFE6FFE1CFD9FF040EE126010EB8
:1059A000F36E030EF3CFDBFFF10EDBCF08F0F20E48
:1059B000DBCF09F0DE5208C0DEFF09C0DDFFDD529B
:1059C000F80EDB50100B17E0D950F70FE96EFF0E01
:1059D000DA20EA6EEE52F30EED16D950F70FE96EAB
:1059E000FF0EDA20EA6EEE52ED82A4C0AAF0A5C046
:1059F000ABF00001AE6BF80EDB50100B45E1F10E81
:105A0000DBCFF6FFDB2AF20EDBCFF7FF01E3DB2A69
:105A10000800F550DF6EDF50000801E301D2F30EFD
:105A2000DBCFE6FFF40EDBCFE6FFF50EDBCFE6FFC4
:105A3000F60EDBCFE6FFDF50E76EF70EDBCF14F09C
:105A4000F80EDBCF15F0E750141214C0E6FF15C0B6
:105A5000E6FFF90EDBCFE6FFFA0EDBCFE6FFD9500B
:105A6000FB0FE96EFF0EDA20EA6EEECFE6FFEECF17
:105A7000E6FFEECFE6FFEFCFE6FF34EC25F0166E43
:105A80000C0EE15E16500CD0F50EDBCFA0F0F60E3A
:105A9000DBCFA1F0F30EDBCFA2F0F40EDBCFA3F04F
:105AA000F10EDBCFF6FFDB2AF20EDBCFF7FF01E3CF
:105AB000DB2A0800F550DF6EDF50000801E313D148
:105AC000F80EDB50020B04E0200EDF5C01E19AD0FF
:105AD000F80EDB50010B48E0E668E668F50EDBCF18
:105AE000E6FFF60EDBCFE6FFF70EDBCF16F0F80E83
:105AF000DBCF17F0000E1616010E1716800EE76E9C
:105B0000F70EDBCF18F0F80EDBCF19F0E750181ABC
:105B100016501810146E17501910156E1450020EEE
:105B200015127F0E1412000E151214C0E6FF15C0D8
:105B3000E6FFF90EDBCFE6FFFA0EDBCFE6FFD9502A
:105B4000FB0FE96EFF0EDA20EA6EEECFE6FFEECF36
:105B5000E6FFEECFE6FFEFCFE6FF34EC25F01A6E5E
:105B60000C0EE15E1A5047D0F30EDBCFE6FFF40EC9
:105B7000DBCFE6FFE668E668F70EDBCF16F0F80E3F
:105B8000DBCF17F0000E1616010E1716800EE76E0B
:105B9000F70EDBCF18F0F80EDBCF19F0E750181A2C
:105BA00016501810146E17501910156E1450020E5E
:105BB00015127F0E1412000E151214C0E6FF15C048
:105BC000E6FFF90EDBCFE6FFFA0EDBCFE6FFD9509A
:105BD000FB0FE96EFF0EDA20EA6EEECFE6FFEECFA6
:105BE000E6FFEECFE6FFEFCFE6FF34EC25F01A6ECE
:105BF0000C0EE15E1A50030EDB5004E00001AE51C2
:105C000001E0AE6B030EDB6AF80EDB50010B31E0F6
:105C1000E668E668F50EDBCFE6FFF60EDBCFE6FFC3
:105C2000DF50E76EF70EDBCF14F0F80EDBCF15F088
:105C3000E750141214C0E6FF15C0E6FFF90EDBCFE3
:105C4000E6FFFA0EDBCFE6FFD950FB0FE96EFF0E41
:105C5000DA20EA6EEECFE6FFEECFE6FFEECFE6FF0C
:105C6000EFCFE6FF34EC25F0166E0C0EE15E165019
:105C700030D0F30EDBCFE6FFF40EDBCFE6FFE668B5
:105C8000E668DF50E76EF70EDBCF14F0F80EDBCFDF
:105C900015F0E750141214C0E6FF15C0E6FFF90E28
:105CA000DBCFE6FFFA0EDBCFE6FFD950FB0FE96E44
:105CB000FF0EDA20EA6EEECFE6FFEECFE6FFEECF84
:105CC000E6FFEFCFE6FF34EC25F0166E0C0EE15E3A
:105CD0001650F80EDB50100B05E00001AC51AD1171
:105CE00001E101D0DDD6F80EDB50040B4EE0F80EDA
:105CF000DB50010B1AE0F30EDB500001A25D000146
:105D0000146EF40EDB500001A3590001156ED890FB
:105D100015321432D950F30FE96EFF0EDA20EA6E15
:105D20001450EE5E1550ED5A19D0F50EDB500001FF
:105D3000A05D0001146EF60EDB500001A1590001B8
:105D4000156ED89015321432D950F50FE96EFF0E4A
:105D5000DA20EA6E1450EE5E1550ED5A010EDBCFDC
:105D600008F0020EDBCF09F0F10E08C0DBFFF20EE7
:105D700009C0DBFFD950F70FE96EFF0EDA20EA6E9B
:105D8000EE52F30EED1637D64BD0F80EDB50080B63
:105D900047E0F80EDB50010B17E0F30EDB5000017B
:105DA000A25D0001146EF40EDB500001A359000146
:105DB000156ED950F30FE96EFF0EDA20EA6E14501B
:105DC000EE5E1550ED5A16D0F50EDB500001A05DC9
:105DD0000001146EF60EDB500001A1590001156E92
:105DE000D950F50FE96EFF0EDA20EA6E1450EE5E20
:105DF0001550ED5A010EDBCF08F0020EDBCF09F093
:105E0000F10E08C0DBFFF20E09C0DBFFD950F70F1F
:105E1000E96EFF0EDA20EA6EEE52F30EED16EBD5C8
:105E2000040EE15C02E2E16AE552E16EE552E7CF81
:105E3000D9FF1200D9CFE6FFE1CFD9FF040EE1264A
:105E4000010EF36E030EF3CFDBFFF10EDBCF08F094
:105E5000F20EDBCF09F0DE5208C0DEFF09C0DDFF25
:105E6000DD52F80EDB50100B17E0D950F70FE96E3A
:105E7000FF0EDA20EA6EEE52F30EED16D950F70F50
:105E8000E96EFF0EDA20EA6EEE52ED82A4C0AAF0AF
:105E9000A5C0ABF00001AE6BF80EDB50100B44E177
:105EA000F10EDBCFE9FFDB2AF20EDBCFEAFF01E3E5
:105EB000DB2AEFCFDFFFDF50000801E300D2F30E53
:105EC000DBCFE6FFF40EDBCFE6FFF50EDBCFE6FF20
:105ED000F60EDBCFE6FFDF50E76EF70EDBCF14F0F8
:105EE000F80EDBCF15F0E750141214C0E6FF15C012
:105EF000E6FFF90EDBCFE6FFFA0EDBCFE6FFD95067
:105F0000FB0FE96EFF0EDA20EA6EEECFE6FFEECF72
:105F1000E6FFEECFE6FFEFCFE6FF34EC25F0166E9E
:105F20000C0EE15E16500CD0F50EDBCFA0F0F60E95
:105F3000DBCFA1F0F30EDBCFA2F0F40EDBCFA3F0AA
:105F4000F10EDBCFE9FFDB2AF20EDBCFEAFF01E344
:105F5000DB2AEFCFDFFFDF50000801E313D1F80E9B
:105F6000DB50020B04E0200EDF5C01E19AD0F80E5A
:105F7000DB50010B48E0E668E668F50EDBCFE6FF94
:105F8000F60EDBCFE6FFF70EDBCF16F0F80EDBCF19
:105F900017F0000E1616010E1716800EE76EF70E9C
:105FA000DBCF18F0F80EDBCF19F0E750181A1650B7
:105FB0001810146E17501910156E1450020E151289
:105FC0007F0E1412000E151214C0E6FF15C0E6FF76
:105FD000F90EDBCFE6FFFA0EDBCFE6FFD950FB0F61
:105FE000E96EFF0EDA20EA6EEECFE6FFEECFE6FFB7
:105FF000EECFE6FFEFCFE6FF34EC25F01A6E0C0E85
:10600000E15E1A5047D0F30EDBCFE6FFF40EDBCF94
:10601000E6FFE668E668F70EDBCF16F0F80EDBCF9A
:1060200017F0000E1616010E1716800EE76EF70E0B
:10603000DBCF18F0F80EDBCF19F0E750181A165026
:106040001810146E17501910156E1450020E1512F8
:106050007F0E1412000E151214C0E6FF15C0E6FFE5
:10606000F90EDBCFE6FFFA0EDBCFE6FFD950FB0FD0
:10607000E96EFF0EDA20EA6EEECFE6FFEECFE6FF26
:10608000EECFE6FFEFCFE6FF34EC25F01A6E0C0EF4
:10609000E15E1A50030EDB5004E00001AE5101E056
:1060A000AE6B030EDB6AF80EDB50010B31E0E668E5
:1060B000E668F50EDBCFE6FFF60EDBCFE6FFDF503E
:1060C000E76EF70EDBCF14F0F80EDBCF15F0E750DC
:1060D000141214C0E6FF15C0E6FFF90EDBCFE6FF91
:1060E000FA0EDBCFE6FFD950FB0FE96EFF0EDA2088
:1060F000EA6EEECFE6FFEECFE6FFEECFE6FFEFCFA4
:10610000E6FF34EC25F0166E0C0EE15E165030D032
:10611000F30EDBCFE6FFF40EDBCFE6FFE668E668C2
:10612000DF50E76EF70EDBCF14F0F80EDBCF15F083
:10613000E750141214C0E6FF15C0E6FFF90EDBCFDE
:10614000E6FFFA0EDBCFE6FFD950FB0FE96EFF0E3C
:10615000DA20EA6EEECFE6FFEECFE6FFEECFE6FF07
:10616000EFCFE6FF34EC25F0166E0C0EE15E165014
:10617000F80EDB50100B05E00001AC51AD1101E150
:1061800001D0DED6F80EDB50040B4EE0F80EDB50EB
:10619000010B1AE0F30EDB500001A25D0001146E4A
:1061A000F40EDB500001A3590001156ED890153292
:1061B0001432D950F30FE96EFF0EDA20EA6E145054
:1061C000EE5E1550ED5A19D0F50EDB500001A05DC2
:1061D0000001146EF60EDB500001A1590001156E8E
:1061E000D89015321432D950F50FE96EFF0EDA202F
:1061F000EA6E1450EE5E1550ED5A010EDBCF08F03A
:10620000020EDBCF09F0F10E08C0DBFFF20E09C071
:10621000DBFFD950F70FE96EFF0EDA20EA6EEE527F
:10622000F30EED1639D64BD0F80EDB50080B47E0D5
:10623000F80EDB50010B17E0F30EDB500001A25DFE
:106240000001146EF40EDB500001A3590001156E1D
:10625000D950F30FE96EFF0EDA20EA6E1450EE5EAD
:106260001550ED5A16D0F50EDB500001A05D00016F
:10627000146EF60EDB500001A1590001156ED950C5
:10628000F50FE96EFF0EDA20EA6E1450EE5E15503F
:10629000ED5A010EDBCF08F0020EDBCF09F0F10E54
:1062A00008C0DBFFF20E09C0DBFFD950F70FE96E23
:1062B000FF0EDA20EA6EEE52F30EED16EDD5040E67
:1062C000E15C02E2E16AE552E16EE552E7CFD9FF17
:1062D0001200D9CFE6FFE1CFD9FFFE0EDBA210D02E
:1062E000A8C0E6FFA9C0E6FFA6C0E6FFA7C0E6FF7C
:1062F000E66AE668F3EC35F0146E060EE15E1450C3
:10630000FE0EDBA212D00001000ED880A855000EB0
:10631000A95504E2A807000EA95B06D0070EA86FD6
:10632000A96BA607000EA75B0FD00001070EA85DA2
:10633000000EA95904E2A82B000EA92305D0A86BD2
:10634000A96BA62B000EA723FE0EDBA009D0E66AE0
:10635000E6EC24F0E5520001A66BA76BA86BA96BD5
:10636000A8C0E6FFA9C0E6FFA6C0E6FFA7C0E6FFFB
:106370008F0EE66EE668F3EC35F0146E060EE15E05
:0A6380001450E552E7CFD9FF1200D8
:06638A000400896A8A6A22
:106390008B6A8C6A8D6A926A3F0E936E900E946E31
:1063A000956A966AF19EC26A0F0EC16ED59CD59A07
